S01300007A65706879725F666C6F772E7372656358
S11300000C94B5000C94D2000C94D2000C94D20041
S11300100C94D2000C94D2000C94D2000C94D20014
S11300200C94D2000C94D2000C94D2000C94A20133
S11300300C94D2000C94D2000C94D2000C94D200F4
S11300400C94D2000C94D2000C94D2000C94D200E4
S11300500C94D2000C94D2000C94D2000C94D200D4
S11300600C94D2000C94D2006E616E00696E66002E
S113007000407A10F35A00A0724E18090010A5D45B
S1130080E80000E87648170000E40B54020000CAB8
S11300909A3B000000E1F5050000809698000000FE
S11300A040420F000000A08601000000102700005D
S11300B00000E803000000006400000000000A00E3
S11300C0000000000100000000002C76D888DC67E6
S11300D04F0823DFC1DFAE59E1B1B796E5E3E4533E
S11300E0C63AE651997696E8E6C28426EB898C9B5B
S11300F062ED407C6FFCEFBC9C9F40F2BAA56FA5FB
S1130100F490055A2AF75C936B6CF9676DC11BFC7C
S1130110E0E40D47FEF520E6B500D0ED902E030097
S1130120943577050080841E080000204E0A0000E4
S113013000C80C333333330F986E12831141EF8DA3
S11301402114893BE65516CFFEE6DB18D1844B38E3
S11301501BF77C1D901DA4BBE424203284725E2214
S11301608100C9F124ECA1E53D2711241FBECFEF86
S1130170D8E0DEBFCDBF11E0A0E0B1E0E4E5F3E1FB
S113018002C005900D92A031B107D9F721E0A0E19A
S1130190B1E001C01D92A032B207E1F70E942F0224
S11301A00C94A8090C9400008CE08093B800089586
S11301B084EA8093BC00ECEBF0E080818823ECF7C8
S11301C0089584E98093BC0008958093BB0084E87B
S11301D08093BC00ECEBF0E080818823ECF7089579
S11301E084EC8093BC00ECEBF0E080818823ECF796
S11301F08091BB00089584E88093BC00ECEBF0E0B0
S113020080818823ECF78091BB0008951BB88FEFA1
S11302108AB908955B9AE7ECF0E03197F1F700C0F2
S113022000009BB19F709BB99BB18295807F892B05
S11302308BB95B9887EC90E00197F1F700C0000060
S11302400895CF93C82F611102C05A9801C05A9AD9
S11302508C2F82958F700E940A018C2F0E940A01B4
S1130260CF91089561E00E942101089590E4699F6F
S1130270800D112460E080680E94210108958FE5BB
S11302809AEE0197F1F700C0000083E00E940A0192
S11302908FE79EE30197F1F700C0000083E00E941E
S11302A00A018FE891E00197F1F700C0000083E0B4
S11302B00E940A018FE99FE00197F1F700C0000056
S11302C082E00E940A018FE99FE00197F1F700C0E4
S11302D0000060E088E20E9421018FE99FE001971D
S11302E0F1F700C0000060E08CE00E9421018FE97A
S11302F09FE00197F1F700C0000060E086E00E94F3
S113030021018FE99FE00197F1F700C000000895F3
S113031060E081E00E9421018FE39FE10197F1F702
S113032000C000000895CF93DF93EC0188818823F7
S113033031F021960E94320189918111FBCFDF9126
S1130340CF9108951F920F920FB60F9211242F93FD
S11303503F934F935F936F937F938F939F93AF9349
S1130360BF93CF93DF93EF93FF930E945802909330
S1130370110180931001BC0180E090E00E944F03C2
S113038020E030E040E858E30E94DD032DEC3CEC33
S11303904CEC5DE30E94700220E030E040E251E466
S11303A00E94DD032DEC3CEC4CE45FE30E94DD0293
S11303B060931201709313018093140190931501BB
S11303C061E070E080E00E943601809115018F9316
S11303D0809114018F93809113018F938091120166
S11303E08F9380E091E09F938F93C6E1D1E0DF93F8
S11303F0CF930E942809CE010E94930161E070E02E
S113040086E00E943601809111018F938091100142
S11304108F9385E091E09F938F93DF93CF930E9416
S11304202809CE010E9493018DB79EB70E960FB690
S1130430F8949EBF0FBE8DBFFF91EF91DF91CF91D6
S1130440BF91AF919F918F917F916F915F914F91E8
S11304503F912F910F900FBE0F901F9018950E94FF
S113046006010E943F010E94D4000E9444020E949F
S1130470880160E070E085E00E94360188E091E048
S11304800E9493017894FFCFE1E8F0E080818860D6
S11304908083AFE6B0E08C9182608C938EE1809390
S11304A0890084E880938800808185608083089532
S11304B0CF93DF930E94D80083E90E94E5000E9455
S11304C0F000C82F0E94FB00D82F0E94E1008C2F5F
S11304D090E0982F88278D0F911DDF91CF9108957B
S11304E05058BB27AA270E9488020C94A3030E9499
S11304F0950338F00E949C0320F039F49F3F19F4CF
S113050026F40C9492030EF4E095E7FB0C948C0310
S1130510E92F0E94B40358F3BA17620773078407DC
S1130520950720F079F4A6F50C94D6030EF4E09523
S11305300B2EBA2FA02D0B01B90190010C01CA0199
S1130540A0011124FF27591B99F0593F50F4503E44
S113055068F11A16F040A22F232F342F4427585F36
S1130560F3CF469537952795A795F0405395C9F74E
S11305707EF41F16BA0B620B730B840BBAF0915006
S1130580A1F0FF0FBB1F661F771F881FC2F70EC0A5
S1130590BA0F621F731F841F48F487957795679578
S11305A0B795F7959E3F08F0B0CF9395880F08F064
S11305B09927EE0F9795879508950E94F1020C9460
S11305C0A3030E949C0358F00E94950340F029F471
S11305D05F3F29F00C948C0351110C94D7030C94B5
S11305E092030E94B40368F39923B1F3552391F362
S11305F0951B550BBB27AA2762177307840738F08E
S11306009F5F5F4F220F331F441FAA1FA9F335D0EA
S11306100E2E3AF0E0E832D091505040E695001C9E
S1130620CAF72BD0FE2F29D0660F771F881FBB1F58
S1130630261737074807AB07B0E809F0BB0B802D36
S1130640BF01FF2793585F4F3AF09E3F510578F062
S11306500C948C030C94D7035F3FE4F3983ED4F3DB
S1130660869577956795B795F7959F5FC9F7880F36
S1130670911D9695879597F90895E1E0660F771F88
S1130680881FBB1F621773078407BA0720F0621B19
S1130690730B840BBA0BEE1F88F7E0950895E8946A
S11306A009C097FB3EF490958095709561957F4FB6
S11306B08F4F9F4F9923A9F0F92F96E9BB27939564
S11306C0F695879577956795B795F111F8CFFAF474
S11306D0BB0F11F460FF1BC06F5F7F4F8F4F9F4FA5
S11306E016C0882311F096E911C0772321F09EE803
S11306F0872F762F05C0662371F096E8862F70E069
S113070060E02AF09A95660F771F881FDAF7880F42
S11307109695879597F9089597F99F6780E870E013
S113072060E008959FEF80EC089500240A94161663
S1130730170618060906089500240A9412161306CB
S1130740140605060895092E0394000C11F4882359
S113075052F0BB0F40F4BF2B11F460FF04C06F5F75
S11307607F4F8F4F9F4F089557FD9058440F551F4B
S113077059F05F3F71F04795880F97FB991F61F01F
S11307809F3F79F087950895121613061406551F96
S1130790F2CF4695F1DF08C0161617061806991F02
S11307A0F1CF86957105610508940895E894BB27F7
S11307B066277727CB0197F908950E94F0030C94DC
S11307C0A3030E94950338F00E949C0320F0952314
S11307D011F00C948C030C94920311240C94D70301
S11307E00E94B40370F3959FC1F3950F50E0551F19
S11307F0629FF001729FBB27F00DB11D639FAA2772
S1130800F00DB11DAA1F649F6627B00DA11D661FC0
S1130810829F2227B00DA11D621F739FB00DA11DE1
S1130820621F839FA00D611D221F749F3327A00D9B
S1130830611D231F849F600D211D822F762F6A2F37
S113084011249F5750409AF0F1F088234AF0EE0F9C
S1130850FF1FBB1F661F771F881F91505040A9F7C9
S11308609E3F510580F00C948C030C94D7035F3F9A
S1130870E4F3983ED4F3869577956795B795F79505
S1130880E7959F5FC1F7FE2B880F911D969587957D
S113089097F90895A0E1B0E0E0E5F4E00C94C7070F
S11308A07C011B016A01FC0117821682838181FF8E
S11308B044C39E012F5F3F4F3901F7019381F1013A
S11308C093FD859193FF81911F01882309F431C31E
S11308D0853239F493FD859193FF81911F0185320F
S11308E039F4B70190E00E94EC0856016501E5CFA8
S11308F010E0512C912CFFE1F915D8F08B3279F0EE
S113090038F4803279F08332A1F4F92DF0612EC0ED
S11309108D3261F0803369F4292D21602DC0392D89
S11309203260932E892D8460982E2AC0E92DE860C8
S113093015C097FC2DC020ED280F2A3088F496FEB0
S113094006C03AE0139F200D1124122F19C08AE02B
S1130950589E200D1124522EE92DE0629E2E10C0C7
S11309608E3231F496FCE5C2F92DF0649F2E08C056
S11309708C3621F4292D2068922E02C0883641F449
S1130980F10193FD859193FF81911F018111B3CFF3
S11309909BEB980F933020F4992D9061805E07C0F3
S11309A09BE9980F933008F066C1992D9F7E96FFBE
S11309B016E09F73992E853619F49064992E08C019
S11309C0863621F4392F3068932E02C0111111504C
S11309D097FE07C01C3350F444244394410E27E08F
S11309E00BC0183038F027E017E005C027E09CE37F
S11309F0492E02C0212F412C560184E0A80EB11CBF
S1130A00F6016081718182819381042DA3010E948A
S1130A10FE076C01F981FC87F0FF02C0F3FF06C0FA
S1130A2091FC06C092FE06C000E205C00DE203C0C0
S1130A300BE201C000E08C858C7019F001115AC2E0
S1130A409BC297FE10C04C0CFC85F4FF04C08A8145
S1130A50813309F44A94141474F528E0241578F5C4
S1130A6088E0482E2CC096FC2AC0812F90E08C157B
S1130A709D059CF03CEFC3163FEFD30674F0892D1F
S1130A808068982E0AC0E2E0F0E0EC0FFD1FE10F51
S1130A90F11D8081803319F411501111F4CF97FEA8
S1130AA00EC044244394410E812F90E0C816D90609
S1130AB02CF41C1904C04424439401C010E097FE94
S1130AC006C01C141D0434F4C601019605C085E05B
S1130AD090E002C081E090E001110196112331F011
S1130AE0212F30E02F5F3F4F820F931F252D30E0E1
S1130AF08217930714F4581A01C0512C892D897058
S1130B0049F4552039F0B70180E290E00E94EC08E6
S1130B105A94F7CF002329F0B701802F90E00E9468
S1130B20EC0893FC09C0552039F0B70180E390E04C
S1130B300E94EC085A94F7CF97FE4CC04601D7FEAA
S1130B4002C0812C912CC60188199909F301E80F80
S1130B50F91FFE87ED87960124193109388B2F87F9
S1130B60012F10E01195019511093FEF83169306AB
S1130B7029F4B7018EE290E00E94EC08C814D9046D
S1130B804CF08F8598898815990524F4ED85FE85A8
S1130B90818101C080E3F1E08F1A91082D853E85A3
S1130BA02F5F3F4F3E872D87801691062CF0B701AB
S1130BB090E00E94EC08D9CFC814D90441F49A817A
S1130BC0963320F4953319F43C8534FF81E3B7015F
S1130BD090E04EC08A81813319F09C859F7E9C876A
S1130BE0B70190E00E94EC08111105C094FC18C0F4
S1130BF085E690E017C0B7018EE290E00E94EC0811
S1130C001E5F82E001E0080FF301E80FF11D80810F
S1130C10B70190E00E94EC08802F0113F3CFE6CFD8
S1130C2085E490E0B7010E94EC08D7FC06C0C1142B
S1130C30D10441F4EC85E4FF05C0D194C194D108FA
S1130C408DE201C08BE2B70190E00E94EC0880E3E2
S1130C502AE0C216D1042CF08F5FFAE0CF1AD10833
S1130C60F7CFB70190E00E94EC08B701C601C09627
S1130C700E94EC0854C1833631F0833779F0833510
S1130C8009F056C020C0560132E0A30EB11CF60193
S1130C908081898301E010E0630112C05601F2E013
S1130CA0AF0EB11CF601C080D18096FE03C0612F47
S1130CB070E002C06FEF7FEFC6010E94E1088C0173
S1130CC0F92DFF7714C0560122E0A20EB11CF601E3
S1130CD0C080D18096FE03C0612F70E002C06FEF28
S1130CE07FEFC6010E94D6088C01F92DF0689F2E73
S1130CF0F3FD1AC0852D90E008171907A8F4B70171
S1130D0080E290E00E94EC085A94F4CFF60197FC3C
S1130D10859197FE81916F01B70190E00E94EC08E4
S1130D2051105A94015011090115110579F7F7C0B2
S1130D30843611F0893661F5560197FE09C024E026
S1130D40A20EB11CF60160817181828193810AC077
S1130D50F2E0AF0EB11CF60160817181072E000C28
S1130D60880B990BF92DFF769F2E97FF09C090955C
S1130D708095709561957F4F8F4F9F4FF0689F2EA0
S1130D802AE030E0A3010E944A09C82EC6183FC0D9
S1130D90092D853721F40F7E2AE030E01DC0097F3C
S1130DA08F3691F018F4883559F0C3C0803719F0A4
S1130DB0883711F0BEC0006104FF09C0046007C099
S1130DC094FE08C0066006C028E030E005C020E1BB
S1130DD030E002C020E132E0560107FF09C084E0A0
S1130DE0A80EB11CF601608171818281938108C0D3
S1130DF0F2E0AF0EB11CF6016081718180E090E0F9
S1130E00A3010E944A09C82EC6180F77902E96FE99
S1130E100BC0092D0E7FC11650F494FE0AC092FC3B
S1130E2008C0092D0E7E05C0DC2C092D03C0DC2C66
S1130E3001C0D12E04FF0DC0FE01EC0DF11D808117
S1130E40803311F4097E09C002FF06C0D394D39401
S1130E5004C0802F867809F0D39403FD11C000FFED
S1130E6006C01C2DD51480F4150D1D190DC0D51404
S1130E7058F4B70180E290E00E94EC08D394F7CFD5
S1130E80D51410F45D1801C0512C04FF10C0B70133
S1130E9080E390E00E94EC0802FF17C001FD03C04C
S1130EA088E790E002C088E590E0B7010CC0802F8D
S1130EB0867859F001FF02C08BE201C080E207FD91
S1130EC08DE2B70190E00E94EC08C11638F4B70136
S1130ED080E390E00E94EC081150F7CFCA94F3012C
S1130EE0EC0DF11D8081B70190E00E94EC08C11067
S1130EF0F5CF15C0F4E0F51560F584E0581A93FEBB
S1130F001FC0011127C02C8523FF2AC008E610E06A
S1130F10392D3071932EF8018491811124C055200C
S1130F2009F4E4CCB70180E290E00E94EC085A9402
S1130F30F6CFF7018681978126C08FEF9FEF23C0FC
S1130F40B70180E290E00E94EC085A945110F8CF67
S1130F50D8CF512CB701802F90E00E94EC08D3CF5A
S1130F600CE610E0D5CF91108052B70190E00E94BA
S1130F70EC080F5F1F4FCFCF23E0251510F483E05B
S1130F80BDCF512CC0CF6096E2E10C94E3072F92C1
S1130F903F924F925F926F927F928F929F92AF9205
S1130FA0BF92CF92DF92EF92FF920F931F93CF9352
S1130FB0DF93CDB7DEB7CA1BDB0B0FB6F894DEBFE9
S1130FC00FBECDBF09942A88398848885F846E840F
S1130FD07D848C849B84AA84B984C884DF80EE8059
S1130FE0FD800C811B81AA81B981CE0FD11D0FB662
S1130FF0F894DEBF0FBECDBFED010895283008F090
S113100027E03327DA01990F311D87FD916000969F
S11310106105710539F432602E5F3D9330E32A9502
S1131020E1F708959F3F30F080387105610509F0BC
S11310303C5F3C5F3D93913008F08068911DDF93E5
S1131040CF931F930F93FF92EF92192F987F96954A
S1131050E92F96959695E90FFF27E653FF4F9927B9
S11310603327EE24FF24A701E70105900894079491
S113107028F4360FE71EF81E491F511D660F771F0F
S1131080881F991F0694A1F70590079428F4E70E8A
S1131090F81E491F561FC11D770F881F991F661F11
S11310A00694A1F70590079428F4F80E491F561FDB
S11310B0C71FD11D880F991F661F771F0694A1F7BC
S11310C00590079420F4490F561FC71FD81F990F86
S11310D0661F771F881F0694A9F7849110951770CF
S11310E041F0D695C79557954795F794E7941A9587
S11310F0C1F7E0E7F0E0689415901591359165919A
S1131100959105907FE27395E118F10A430B560B14
S1131110C90BD009C0F7E10CF11E431F561FC91FAC
S1131120D01D7EF4703311F48A95E6CFE894015013
S113113030F0080F0AF40027021708F4202F239533
S1131140022F7A3328F079E37D932A95E9F710C0CA
S11311507D932A9589F60694979567953795179503
S11311601794E118F10A430B560BC90BD00998F0F8
S113117023957E9173957A3308F070E37C93201362
S1131180B8F77E9170617D9330F0839571E37D9320
S113119070E32A95E1F71124EF90FF900F911F91CE
S11311A0CF91DF91992787FD90950895FC010590D3
S11311B0615070400110D8F7809590958E0F9F1F55
S11311C00895FC016150704001900110D8F780959A
S11311D090958E0F9F1F08950F931F93CF93DF93C6
S11311E0FB01238121FD03C08FEF9FEF2CC022FF61
S11311F016C046815781248135814217530744F430
S1131200A081B1819D012F5F3F4F318320838C9357
S1131210268137812F5F3F4F3783268314C08B018C
S1131220EC01FB010084F185E02D0995892BE1F6A1
S1131230D80116968D919C911797019617969C93B9
S11312408E931697CE01DF91CF911F910F91089540
S1131250AEE0B0E0EEE2F9E00C94D5070D891E890A
S113126086E08C831A8309838FEF9FE79E838D83A7
S1131270AE01475E5F4F6F89788DCE0101960E9463
S11312804A04EF81F885E00FF11F10822E96E4E006
S11312900C94F107FA01AA27283051F1203181F189
S11312A0E8946F936E7F6E5F7F4F8F4F9F4FAF4F6A
S11312B0B1E03ED0B4E03CD0670F781F891F9A1F7D
S11312C0A11D680F791F8A1F911DA11D6A0F711D31
S11312D0811D911DA11D20D009F468943F912AE03D
S11312E0269F11243019305D3193DEF6CF01089525
S11312F0462F4770405D4193B3E00FD0C9F7F6CF56
S1131300462F4F70405D4A3318F0495D31FD40521D
S1131310419302D0A9F7EACFB4E0A69597958795B3
S113132077956795BA95C9F7009761057105089592
S11313309B01AC010A2E069457954795379527953E
S1131340BA95C9F7620F731F841F951FA01D0895D6
S1071350F894FFCF3B
S1131354252E3266002569005A657068797200008A
S9030000FC
